:10000000A6C00000BFC00000BDC00000BBC0000013
:10001000B9C00000B7C00000B5C00000B3C0000008
:10002000B1C00000AFC00000ADC0000063C600005A
:10003000A9C00000A7C00000A5C00000A3C0000028
:10004000A1C000009FC000009DC000009BC0000038
:1000500099C0000097C0000095C0000093C0000048
:1000600091C000008FC000008DC000008BC0000058
:1000700089C00000240350004F004B004B00450096
:100080004E00200043004F004E00540052004F002D
:100090004C004C004500520000001C0348004F007B
:1000A00052004900200043004F002E002C004C005D
:1000B000540044002E000000040309040902290032
:1000C00001010080FA090400000203000000092178
:1000D0001101000122560007050203400005070533
:1000E000810340000512010002000000400D0F9244
:1000F0000000010102000105010905A1011500250B
:100100000135004501750195100509190129108176
:100110000205012507463B0175049501651409395F
:10012000814265009501810126FF0046FF000930EC
:100130000931093209357508950481020600FF0965
:1001400020950181020A212695089102C000112400
:100150001FBECFEFD2E0DEBFCDBF11E0A0E0B1E027
:10016000E8E3F1E102C005900D92AE3AB107D9F78C
:1001700021E0AEEAB1E001C01D92AE3DB207E1F769
:1001800021D3D8C73DCF84B7877F84BF0FB6F894FB
:10019000A895809160008861809360001092600053
:1001A0000FBE90E080E80FB6F894809361009093C2
:1001B00061000FBE90C50895089542E360EC82E0AF
:1001C000CAD442E361EC81E0C6C40895DC0198E042
:1001D000FD01892F11928A95E9F780E813968C9397
:1001E000139714968C93149715968C9315971696CF
:1001F0008C93169712969C9312978091C5019091BB
:10020000C601181619066CF488E0E7ECF1E00190DD
:100210000D928A95E1F78091C5019091C6010197F1
:10022000B0C08091AE018230A1F048F4882379F00B
:10023000813009F09CC011961C921E9208C0843037
:1002400009F492C040F0853009F49FC090C082E06C
:100250008CC083E08AC0483009F454C0C8F44330ED
:10026000C9F138F4413091F1C8F514961C921497F5
:1002700071C0453009F44BC0B0F1463009F44CC0B0
:10028000473009F067C08D919C911197846057C0E9
:100290004D3071F160F44A3009F448C008F441C0AF
:1002A0004B3009F057C014961C9214973FC04F3042
:1002B00009F441C010F1403109F445C0413109F061
:1002C00049C08D919C911197906139C014961C92F0
:1002D000149709C013961C9213973CC08FEF149685
:1002E0008C93149737C08FEF13968C93139732C06B
:1002F0008D919C911197926022C08D919C91119744
:1003000091601DC08D919C911197826018C08D9154
:100310009C911197886013C08D919C911197816079
:100320000EC08D919C911197806109C08D919C9117
:100330001197806204C08D919C91119780631196F2
:100340009C938E9307C013961C9213978FEF15966C
:100350008C9315978091BD019091BE010196909369
:10036000BE018093BD0103C085E08093AE0188E0AB
:10037000FD01A7ECB1E001900D928A95E1F782E0D2
:1003800090E09093C6018093C5010895CF92DF92CB
:10039000EF92CF93DF93CDB7DEB728970FB6F894DF
:1003A000DEBF0FBECDBF9091D5019430A9F56B0192
:1003B000E82E82E08093E9008091E80082FF12C07D
:1003C0008091E80085FF09C040E050E067E070E000
:1003D000CE010196BBD28111F7CF8091E8008B77D7
:1003E0008093E80081E08093E9008091E80080FF3D
:1003F00013C06E2DA601CE010196E8DE40E050E06C
:1004000068E070E0CE01019657D28111F7CF80915C
:10041000E8008E778093E80028960FB6F894DEBF48
:100420000FBECDBFDF91CF91EF90DF90CF900895B9
:100430001F93CF93DF93162FD72FC82F1092BE0193
:100440001092BD018D2F9C2F2091BD013091BE01D6
:100450002817390730F4612F7D2F8C2F97DF50D666
:10046000F1CFDF91CF911F910895CF93DF93CEE726
:10047000D1E0688179818A81DBDF6B817C818D812C
:10048000D7DF6E817F818885D3DF69857A858B850B
:10049000CFDF6C857D858E85CBDF6F8578898989F7
:1004A000C7DF6A897B898C89C3DF6D897E898F89E3
:1004B000DF91CF91BDCF6F927F928F92CF92DF92DB
:1004C000EF92CF93DF93C0900601D0900701E090A8
:1004D00008016090090170900A0180900B01C5E04D
:1004E000D0E060E075E080E0A3DF8E2DB601A0DFF4
:1004F0002197B9F7882DB3019BDF8E2DB60198DFC8
:10050000DF91CF91EF90DF90CF908F907F906F90A1
:1005100008952F923F924F926F927F928F92CF9237
:10052000DF92EF92CF93DF93CDB7DEB72B970FB665
:10053000F894DEBF0FBECDBF26E030E03B872A87B0
:1005400080919C0190919D01A0919E0189839A8345
:10055000AB8320909F013090A0014090A10160905A
:10056000A2017090A3018090A401C090A501D09039
:10057000A601E090A7018091A8019091A901A09106
:10058000AA018C839D83AE838091AB019091AC01D5
:10059000A091AD018F839887A98769817A818B812A
:1005A00047DF842DB10144DF882DB30141DF8E2D5B
:1005B000B6013EDF6C817D818E813ADF6F81788567
:1005C000898536DF2A853B85215031093B872A877B
:1005D000232B19F760900C0170900D0180900E0193
:1005E000882DB30125DF60910F017091100180917A
:1005F00011011EDF882DB3011BDF60911201709184
:1006000013018091140114DF8DE090E09A838983B7
:100610008091150190911601A09117018C839D8303
:10062000AE838091180190911901A0911A018F83D6
:100630009887A9876C817D818E81FADE6F817885AC
:100640008985F6DE29813A81215031093A8329834F
:10065000232B81F70ADFC0900601D0900701E090BC
:10066000080160911B0170911C0180911D01E0DE69
:100670008E2DB601DDDE80911E0190911F01A091AB
:10068000200189839A83AB83BC018A2FD1DE8E2D12
:10069000B601CEDE882DB301CBDE8E2DB601C8DECD
:1006A0002090090130900A0140900B01842DB10186
:1006B000BFDE8E2DB601BCDE60E075E080E0B8DE06
:1006C0008E2DB601B5DE1B861A868091B3019091FE
:1006D000B4012A853B852817390774F469817A812A
:1006E0008B81A6DE8E2DB601A3DE2A853B852F5F8A
:1006F0003F4F3B872A87E9CF1A8219828091B10147
:100700009091B20129813A812817390764F4842D28
:10071000B1018EDE8E2DB6018BDE89819A81019624
:100720009A838983EBCF882DB30182DE8E2DB601AB
:100730007FDE8091B3019091B40101969093B40152
:100740008093B30105976CF08091B1019091B20153
:1007500001969093B2018093B1011092B40110926E
:10076000B3018091B1019091B20106972CF0A3DE04
:100770001092B2011092B1018DE090E09A838983CA
:100780006C817D818E8154DE6F817885898550DE14
:1007900029813A81215031093A832983232B81F71A
:1007A0002B960FB6F894DEBF0FBECDBFDF91CF9171
:1007B000EF90DF90CF908F907F906F904F903F9011
:1007C0002F900895CF93DF93DEDC78946091210120
:1007D00070912201809123012BDE609118017091AC
:1007E000190180911A0124DE609124017091250184
:1007F000809126011DDE8091AF01811107C06091BB
:100800002701709128018091290112DE8091AF01AA
:1008100081110CC0C0E0D0E08091020190910301F1
:10082000C817D9071CF475DE2196F6CF80E090E05A
:10083000DF91CF910895292F332723303105E1F03F
:1008400058F42130310599F02230310569F589E2FB
:1008500090E02CEB30E02CC02132310501F1223246
:10086000310511F586E590E027EF30E021C082E107
:1008700090E025EE30E01CC099278130910549F0C9
:1008800028F0029789F4E4E7F0E005C0E8EBF0E037
:1008900002C0EAE9F0E0849190E09F0109C089E09C
:1008A00090E02EEC30E004C080E090E020E030E00A
:1008B000FA01318320830895CF92DF92EF92FF9265
:1008C0000F931F93CF93DF93EC018B017A0197D1A4
:1008D000811133C0E114F10439F0F7018081918175
:1008E000081B190BC80FD91FC12CD12C01151105DC
:1008F00019F18091E80085FD16C08091E8008E779F
:100900008093E800FDD3E114F10449F0F701808100
:100910009181C80ED91ED182C08285E00EC06FD1F0
:10092000882321F30AC089918093F10001501109B5
:10093000FFEFCF1ADF0ADACF80E0DF91CF911F916E
:100940000F91FF90EF90DF90CF900895CF92DF92BC
:10095000EF92FF920F931F93CF93DF93EC018B01E4
:100960007A014DD1811133C0E114F10439F0F7015E
:1009700080819181081B190BC80FD91FC12CD12C64
:100980000115110519F18091E80085FD16C08091CF
:10099000E8008B778093E800B3D3E114F10449F0C9
:1009A000F70180819181C80ED91ED182C08285E075
:1009B0000EC025D1882321F30AC08091F1008993CC
:1009C00001501109FFEFCF1ADF0ADACF80E0DF9183
:1009D000CF911F910F91FF90EF90DF90CF900895EE
:1009E0002091DC013091DD012617370748F06115B1
:1009F000710539F42091E8002E772093E80001C0BA
:100A0000B901FC0120E06115710569F18091D50102
:100A10008823E1F18530E1F18091E80083FD3AC05F
:100A20008091E80082FD2CC08091E80080FFEBCF30
:100A30008091F20090E06115710551F080349105CC
:100A400038F421912093F100615071090196F3CFA0
:100A500021E08034910509F020E08091E8008E7754
:100A60008093E800D0CF2111D1CF0AC08091D50169
:100A7000882361F0853061F08091E80083FD0AC031
:100A80008091E80082FFF2CF80E0089582E008952F
:100A900083E0089581E008952091DC013091DD012B
:100AA0002617370748F06115710539F42091E800E1
:100AB0002E772093E80001C0B901FC0120E0611508
:100AC000710581F18091D501882309F43EC08530FC
:100AD00009F43DC08091E80083FD3BC08091E800AF
:100AE00082FD2DC08091E80080FFE9CF8091F20067
:100AF00090E06115710559F08034910540F424911E
:100B00002093F1003196615071090196F2CF21E0F6
:100B10008034910509F020E08091E8008E77809381
:100B2000E800CDCF2111CECF0AC08091D501882316
:100B300061F0853061F08091E80083FD0AC080910A
:100B4000E80082FFF2CF80E0089582E0089583E01C
:100B5000089581E00895982F953068F59093E90005
:100B6000981739F07091EC002091ED005091F00051
:100B700003C0242F762F50E021FD02C09F5FECCFF1
:100B80003091EB003E7F3093EB003091ED003D7FE4
:100B90003093ED003091EB0031603093EB007093B7
:100BA000EC002093ED005093F0002091EE0027FD23
:100BB000E5CF80E008958F708093E90081E008958B
:100BC0008091D60187FF11C08091E80082FD05C0A9
:100BD0008091D5018111F8CF11C08091E8008B7709
:100BE0000BC08091D501882349F08091E80080FFF7
:100BF000F8CF8091E8008E778093E80008952091E7
:100C0000E4003091E50095E64091EC00842F81707E
:100C100040FF23C08091E80080FD1DC08091D50178
:100C2000882399F0853099F08091EB0085FD11C003
:100C30004091E4005091E5002417350729F39150C5
:100C400011F09A01E1CF84E0089582E0089583E0F5
:100C5000089581E0089580E008954091E80042FF02
:100C6000DDCF089541D043D08091D8008F77809315
:100C7000D8008091D80080688093D8008091D800F7
:100C80008F7D8093D80084E089BD86E089BD09B45A
:100C900000FEFDCF1092D5011092D1011092D30128
:100CA0001092D20142E360E080E055DF8091E100E4
:100CB0008E7F8093E1008091E20081608093E2006A
:100CC0008091E20088608093E2008091E0008E7F56
:100CD0008093E0000895E3E6F0E080818E7F8083DA
:100CE00081E08093D401BECF1092E200089510926B
:100CF000E10008951F920F920FB60F9211242F93C7
:100D00003F934F935F936F937F938F939F93AF9393
:100D1000BF93EF93FF938091E10082FF0AC080911F
:100D2000E20082FF06C08091E1008B7F8093E100AA
:100D3000E6D18091E10080FF17C08091E20080FF42
:100D400013C08091E2008E7F8093E2008091E200E8
:100D500080618093E2008091D80080628093D80007
:100D600019BC1092D50128DA8091E10084FF2FC0D0
:100D70008091E20084FF2BC084E089BD86E089BDBC
:100D800009B400FEFDCF8091D8008F7D8093D800FC
:100D90008091E1008F7E8093E1008091E2008F7E60
:100DA0008093E2008091E20081608093E200809174
:100DB000D101882311F084E007C08091E30087FD12
:100DC00002C081E001C083E08093D501F4D9809115
:100DD000E10083FF22C08091E20083FF1EC080916A
:100DE000E100877F8093E10082E08093D50110923B
:100DF000D1018091E1008E7F8093E1008091E2003B
:100E00008E7F8093E2008091E20080618093E20017
:100E100042E360E080E09FDE72D1FF91EF91BF91ED
:100E2000AF919F918F917F916F915F914F913F9182
:100E30002F910F900FBE0F901F9018951F93CF9377
:100E4000DF93CDB7DEB7AA970FB6F894DEBF0FBE1B
:100E5000CDBFE6EDF1E08091F100819321E0EE3D20
:100E6000F207C9F7B2D98091E80083FF30C18091C1
:100E7000D6019091D701953009F483C030F49130B8
:100E8000A9F168F0933091F122C1983009F4EFC0D4
:100E9000993009F4FBC0963009F019C194C080382C
:100EA00021F0823809F013C108C08091D2019091DD
:100EB000D301992389F082600FC08091DA018F708D
:100EC000853008F004C18093E9008091EB0085FB38
:100ED000882780F91092E9009091E800977F90931D
:100EE000E8008093F1001092F100CCC0282F2D7FF4
:100EF00009F0EDC0882319F0823061F0E8C08091DC
:100F0000D801813009F0E3C0933009F080E080938C
:100F1000D3012EC08091D80181112AC08091DA01BD
:100F20008F702FEF280F243008F0D1C08093E90094
:100F30002091EB0020FF1CC0933021F48091EB0046
:100F4000806214C09091EB0090619093EB0021E0DF
:100F500030E0A90102C0440F551F8A95E2F7409383
:100F6000EA001092EA008091EB0088608093EB0029
:100F70001092E9008091E800877F8093E80020DEEE
:100F8000A6C08111A4C01091D8011F778091E30001
:100F90008078812B8093E3008091E800877F8093A5
:100FA000E8000EDE8091E80080FFFCCF8091E30036
:100FB00080688093E300111102C082E001C083E0E9
:100FC0008093D50184C08058823008F080C0809121
:100FD000D8019091D9018C3D53E0950771F583E0DC
:100FE0008A838AE289834FB7F894DE01139620E062
:100FF0003EE051E2E32FF0E050935700E49120FFF0
:1010000003C0E295EF703F5FEF708E2F90E0EA3003
:1010100010F0C79601C0C0968D939D932F5F243129
:1010200049F74FBF8091E800877F8093E8006AE22C
:1010300070E0CE010196D4DC14C06091DA017091A9
:10104000DB01AE014F5F5F4FF6DBBC01892B09F47A
:101050003EC09091E800977F9093E80089819A8143
:101060001BDD8091E8008B778093E80030C08038EA
:1010700071F58091E800877F8093E8008091D1012D
:101080008093F1008091E8008E7777CF81111FC0A7
:101090008091D8019091D90199270297C4F4809149
:1010A000E800877F8093E8008091D8018093D10188
:1010B00087DD8091D101811106C08091E30087FD19
:1010C00002C081E001C084E08093D50176D8809190
:1010D000E80083FF0AC08091E800877F8093E800E2
:1010E0008091EB0080628093EB00AA960FB6F89493
:1010F000DEBF0FBECDBFDF91CF911F910895089540
:10110000CF938091D501882399F0C091E900CF70E9
:101110009091EC00892F817090FD80E8C82B10928F
:10112000E9008091E80083FD89DECF70C093E9007B
:08113000CF910895F894FFCF60
:101138000A003C0002000C0A000405000705000C28
:1011480028000C3200080F000C05000305000205FA
:10115800000F3200073200018C001014000905004E
:101168000C05000C0A000C14000C1E000C280003CF
:1011780005000C05000405000C05000205000C051F
:10118800000705000C050010F00A0705000C050013
:101198000205000C05000205000C05000205000C04
:1011A80005000205000C05000705000C05000505F3
:1011B800000C2D000705000C46000A05000C46002F
:1011C8000605000C05000605000C05000350000C80
:0E11D80005000446000C05000128000C0A006A
:00000001FF
