:10000000A6C00000C0C00000BEC00000BCC0000010
:10001000BAC00000B8C00000B6C00000B4C0000004
:10002000B2C00000B0C00000AEC000000C946C0D67
:10003000AAC00000A8C00000A6C00000A4C0000024
:10004000A2C00000A0C000009EC000009CC0000034
:100050009AC0000098C0000096C0000094C0000044
:1000600092C0000090C000008EC000008CC0000054
:100070008AC00000240350004F004B004B00450095
:100080004E00200043004F004E00540052004F002D
:100090004C004C004500520000001C0348004F007B
:1000A00052004900200043004F002E002C004C005D
:1000B000540044002E000000040309040902290032
:1000C00001010080FA090400000203000000092178
:1000D0001101000122560007050203400005070533
:1000E000810340000512010002000000400D0F9244
:1000F0000000010102000105010905A1011500250B
:100100000135004501750195100509190129108176
:100110000205012507463B0175049501651409395F
:10012000814265009501810126FF0046FF000930EC
:100130000931093209357508950481020600FF0965
:1001400020950181020A212695089102C000112400
:100150001FBECFEFD2E0DEBFCDBF11E0A0E0B1E027
:10016000E4E2FFE102C005900D92AA3FB107D9F782
:1001700022E0AAEFB1E001C01D92A632B207E1F77A
:1001800063D60C94900F3CCF84B7877F84BF0FB6A3
:10019000F894A89580916000886180936000109227
:1001A00060000FBE90E080E80FB6F8948093610085
:1001B000909361000FBE0C945D0D0895089542E385
:1001C00060EC82E00E949D0C42E361EC81E00C94C3
:1001D0009D0C0895DC0198E0FD01892F11928A950C
:1001E000E9F780E813968C93139714968C931497E1
:1001F00015968C93159716968C93169712969C933A
:10020000129780910D0290910E02181619066CF447
:1002100088E0EFE0F2E001900D928A95E1F780919D
:100220000D0290910E020197B0C08091FA018230C8
:10023000A1F048F4882379F0813009F09CC0119630
:100240001C921E9208C0843009F492C040F08530A0
:1002500009F49FC090C082E08CC083E08AC048301F
:1002600009F454C0C8F44330C9F138F4413091F175
:10027000C8F514961C92149771C0453009F44BC010
:10028000B0F1463009F44CC0473009F067C08D9199
:100290009C911197846057C04D3071F160F44A30E1
:1002A00009F448C008F441C04B3009F057C0149617
:1002B0001C9214973FC04F3009F441C010F14031F7
:1002C00009F445C0413109F049C08D919C911197C5
:1002D000906139C014961C92149709C013961C9211
:1002E00013973CC08FEF14968C93149737C08FEF01
:1002F00013968C93139732C08D919C9111979260B5
:1003000022C08D919C91119791601DC08D919C91FF
:100310001197826018C08D919C911197886013C0CD
:100320008D919C91119781600EC08D919C91119738
:10033000806109C08D919C911197806204C08D915C
:100340009C911197806311969C938E9307C013968E
:100350001C9213978FEF15968C9315978091050239
:10036000909106020196909306028093050203C0C5
:1003700085E08093FA0188E0FD01AFE0B2E00190F2
:100380000D928A95E1F782E090E090930E028093BF
:100390000D020895CF92DF92EF92CF93DF93CDB706
:1003A000DEB728970FB6F894DEBF0FBECDBF909191
:1003B0001D029430B9F56B01E82E82E08093E900CC
:1003C0008091E80082FF13C08091E80085FF0AC099
:1003D00040E050E067E070E0CE0101960E94980B8B
:1003E0008111F6CF8091E8008B778093E80081E05F
:1003F0008093E9008091E80080FF14C06E2DA60173
:10040000CE010196E7DE40E050E068E070E0CE010A
:1004100001960E944E0B8111F6CF8091E8008E77F5
:100420008093E80028960FB6F894DEBF0FBECDBFCC
:10043000DF91CF91EF90DF90CF9008951F93CF93EE
:10044000DF93162FD72FC82F1092060210920502A5
:100450008D2F9C2F20910502309106022817390715
:1004600038F4612F7D2F8C2F95DF0E94760FF0CF0F
:10047000DF91CF911F9108952F923F924F926F92EB
:100480007F928F92CF92DF92EF92CF93DF93CDB78F
:10049000DEB72B970FB6F894DEBF0FBECDBF83E05B
:1004A00090E09B878A878091E7019091E801A09175
:1004B000E90189839A83AB832090EA013090EB01B4
:1004C0004090EC016090ED017090EE018090EF01A2
:1004D000C090F001D090F101E090F2018091F30121
:1004E0009091F401A091F5018C839D83AE8380915E
:1004F000F6019091F701A091F8018F839887A98761
:1005000069817A818B819ADF842DB10197DF882DF3
:10051000B30194DF8E2DB60191DF6C817D818E81D8
:100520008DDF6F817885898589DF8A859B85019735
:100530009B878A87892B21F7C0900601D0900701FD
:10054000E09008018E2DB60179DF6091090170916C
:100550000A0180910B0172DF8E2DB6016FDF609171
:100560000C0170910D0180910E0168DF8DE090E02B
:100570009A83898360900F0170901001809011011F
:10058000C0901201D0901301E0901401882DB301A6
:1005900055DF8E2DB60152DF89819A8101979A83AA
:1005A0008983892B99F784E08093FB012B960FB602
:1005B000F894DEBF0FBECDBFDF91CF91EF90DF90FB
:1005C000CF908F907F906F904F903F902F90089595
:1005D0002F923F924F926F927F928F92AF92BF92E3
:1005E000CF92DF92EF920F931F93CF93DF93CDB70C
:1005F000DEB7C655D1090FB6F894DEBF0FBECDBF2A
:1006000000E010E08091C9019091CA01A091CB0156
:1006100026968DAF9EAFAFAF26978091CC0190917B
:10062000CD01A091CE0129968DAF9EAFAFAF299796
:100630008091CF019091D001A091D1012C968DAFE6
:100640009EAFAFAF2C978091900190919101A091B6
:1006500092012F968DAF9EAFAFAF2F9780919301F0
:1006600090919401A091950162968DAF9EAFAFAF2E
:10067000629780910F0190911001A091110188A7BC
:1006800099A7AAA78091120190911301A09114013A
:100690008C839D83AE838091150190911601A0916A
:1006A000170165968DAF9EAFAFAF659726966DAD7E
:1006B0007EAD8FAD2697C2DE29966DAD7EAD8FAD36
:1006C0002997BCDE2C966DAD7EAD8FAD2C97B6DE36
:1006D0008091D2019091D301A091D4018BA79CA7C6
:1006E000ADA7BC018A2FAADE8091D5019091D601D9
:1006F000A091D7018EA79FA7A8ABBC018A2F9EDE31
:100700008091D8019091D901A091DA0189AB9AAB7F
:10071000ABABBC018A2F92DE8091DB019091DC01B2
:10072000A091DD018CAB9DABAEABBC018A2F86DE08
:100730008091DE019091DF01A091E0018FAB98AF35
:10074000A9AFBC018A2F7ADE8091E1019091E2018C
:10075000A091E3018AAF9BAFACAFBC018A2F6EDEE4
:100760008091E4019091E501A091E6018DAF9EAFEB
:10077000AFAFBC018A2F62DE80918A0190918B011C
:10078000A0918C0189839A83AB8380918D01909194
:100790008E01A0918F018F839887A9876090A50112
:1007A0007090A6018090A701C090A801D090A901E7
:1007B000E090AA018091AB019091AC01A091AD01B4
:1007C0008A879B87AC878091AE019091AF01A09101
:1007D000B0018D879E87AF878091B1019091B20162
:1007E000A091B301888B998BAA8B8091B4019091D1
:1007F000B501A091B6018B8B9C8BAD8B8091B7011D
:100800009091B801A091B9018E8B9F8BA88F809198
:10081000BA019091BB01A091BC01898F9A8FAB8FD7
:100820008091BD019091BE01A091BF018C8F9D8FE1
:10083000AE8F8091C0019091C101A091C2018F8FB4
:1008400098A3A9A38091C3019091C401A091C5016F
:100850008AA39BA3ACA38091C6019091C701A091EC
:10086000C8018DA39EA3AFA30115110509F47FC094
:1008700069817A818B81E2DD6F8178858985DEDD12
:10088000609196017091970180919801D7DD6091F8
:10089000990170919A0180919B01D0DD882DB3015F
:1008A000CDDD8E2DB601CADD6A857B858C85C6DDE2
:1008B0006D857E858F85C2DD688979898A89BEDDEF
:1008C0006B897C898D89BADD6E897F89888DB6DDDB
:1008D000698D7A8D8B8DB2DD6C8D7D8D8E8DAEDDCB
:1008E0006F8D78A189A1AADD6AA17BA18CA1A6DD6B
:1008F0006DA17EA18FA1A2DD22961FAE1EAE229712
:100900002F966DAD7EAD8FAD2F9798DD62966DAD54
:100910007EAD8FAD629792DD22968EAD9FAD229710
:10092000019622969FAF8EAF22978017910744F3CE
:1009300020901201309013014090140160E075E0A6
:1009400080E07CDD842DB10179DD882DB30176DD79
:100950008E2DB60173DD2F966DAD7EAD8FAD2F97C9
:100960006DDD62966DAD7EAD8FAD629767DD882DD2
:10097000B30164DD8E2DB60161DD6A857B858C85D2
:100980005DDD6D857E858F8559DD688979898A89E8
:1009900055DD6B897C898D8951DD6E897F89888DD4
:1009A0004DDD698D7A8D8B8D49DD6C8D7D8D8E8DC4
:1009B00045DD6F8D78A189A141DD6AA17BA18CA164
:1009C0003DDD6DA17EA18FA139DD22961FAE1EAE49
:1009D000229769817A818B8131DD6F817885898564
:1009E0002DDD22968EAD9FAD2297019622969FAF68
:1009F0008EAF22970817190764F78091960190919E
:100A00009701A091980123968DAF9EAFAFAF23972A
:100A1000BC018A2F13DD2090990130909A014090FB
:100A20009B01842DB1010ADD60919C0170919D01B3
:100A300080919E0103DD60919F017091A0018091E2
:100A4000A101FCDC82E190E067969FAF8EAF6797D3
:100A500068A579A58AA5F2DC6C817D818E81EEDCAA
:100A600067968EAD9FAD6797019767969FAF8EAFE4
:100A70006797892B69F76091A2017091A30180911A
:100A8000A401DCDC85E090E067969FAF8EAF6797AE
:100A900085E2A82EB12C68A579A58AA5CFDC6C814A
:100AA0007D818E81CBDC91E0A91AB108A1F7659612
:100AB0006DAD7EAD8FAD6597C1DC67968EAD9FAD98
:100AC0006797019767969FAF8EAF6797892B01F75E
:100AD0000F5F1F4F0630110509F0E8CD26966DAD6A
:100AE0007EAD8FAD2697AADC29966DAD7EAD8FAD1C
:100AF0002997A4DC2C966DAD7EAD8FAD2C979EDC36
:100B00006BA57CA58DA59ADC6EA57FA588A996DC32
:100B100069A97AA98BA992DC6CA97DA98EA98EDC22
:100B20006FA978AD89AD8ADC6AAD7BAD8CAD86DC12
:100B30006DAD7EAD8FAD82DC69817A818B817EDC8B
:100B40006F81788589857ADC23966DAD7EAD8FAD1A
:100B5000239774DC842DB10171DC882DB3016EDC28
:100B60008E2DB6016BDC6A857B858C8567DC6D8597
:100B70007E858F8563DC688979898A895FDC6B89EA
:100B80007C898D895BDC6E897F89888D57DC698DD6
:100B90007A8D8B8D53DC6C8D7D8D8E8D4FDC6F8DC2
:100BA00078A189A14BDC6AA17BA18CA147DC6DA156
:100BB0007EA18FA143DC86E090E098878F838091AF
:100BC000900190919101A091920189839A83AB83C6
:100BD00020909301309094014090950169817A8131
:100BE0008B812CDC842DB10129DC8F8198850197C4
:100BF00098878F83892B91F760E075E080E01EDC99
:100C00006C817D818E811ADC882DB30117DC8E2DDD
:100C1000B60114DC60E075E080E010DC6C817D8161
:100C20008E810CDC69817A818B8108DC842DB10195
:100C300005DC84E190E09A83898368A579A58AA57B
:100C4000FDDB6C817D818E81F9DB89819A81019741
:100C50009A838983892B89F7CA5ADF4F0FB6F89494
:100C6000DEBF0FBECDBFDF91CF911F910F91EF90EF
:100C7000DF90CF90BF90AF908F907F906F904F900C
:100C80003F902F900895CF93DF93C9ECD1E0688116
:100C900079818A81D3DB6B817C818D81CFDB6E8111
:100CA0007F818885CBDB69857A858B85C7DB6C8501
:100CB0007D858E85C3DB6F8578898989BFDB6A89ED
:100CC0007B898C89BBDB6D897E898F89B7DB688DD9
:100CD000798D8A8DB3DB6B8D7C8D8D8DDF91CF917E
:100CE000ADCBCF93DF93C5EAD1E0688179818A816A
:100CF000A5DB6B817C818D81A1DB6E817F81888505
:100D00009DDB69857A858B8599DB6C857D858E85F4
:100D100095DB6F857889898991DB6A897B898C89E4
:100D20008DDB6D897E898F8989DB688D798D8A8DD0
:100D300085DB6B8D7C8D8D8D81DB6E8D7F8D88A1AC
:100D40007DDB69A17AA18BA1DF91CF9177CB2F9227
:100D50003F924F926F927F928F92CF92DF92EF925B
:100D6000FF926C0190DF60911801709119018091E0
:100D70001A0164DB609148017091490180914A0138
:100D80005DDB60918A0170918B0180918C0156DB53
:100D900060918D0170918E0180918F014FDB609188
:100DA0009601709197018091980148DB60919901BB
:100DB00070919A0180919B0141DB93DFE12CF12C32
:100DC00020909001309091014090920160909301A9
:100DD0007090940180909501EC14FD0454F4842DDE
:100DE000B1012CDB882DB30129DB8FEFE81AF80A5B
:100DF000F3CFC0901201D0901301E090140160E095
:100E000075E080E01BDB8E2DB60118DB6091A5013B
:100E10007091A6018091A70111DB6091A8017091EA
:100E2000A9018091AA010ADB842DB10107DB882D7D
:100E3000B301FF90EF90DF90CF908F907F906F90F5
:100E40004F903F902F90FACA2F923F924F926F92FD
:100E50007F928F92AF92BF92CF92DF92EF920F93D9
:100E60001F93CF93DF93CDB7DEB7AC970FB6F8944F
:100E7000DEBF0FBECDBF88D9789460911B01709101
:100E80001C0180911D01DADA809112019091130109
:100E9000A091140189839A83AB83BC018A2FCEDA97
:100EA00060911E0170911F0180912001C7DA80912D
:100EB000FB01811107C06091210170912201809195
:100EC0002301BCDA8091FB01811103C01D821C82C9
:100ED000B9C08091FB01843009F0D7C080913F01F7
:100EE00090914001A09141018C839D83AE83BC0110
:100EF0008A2FA4DA209081013090820140908301F2
:100F0000842DB1019BDA6090390170903A01809094
:100F10003B01882DB30192DAC0905101D09052016B
:100F2000E09053018E2DB60189DA8E2DB60186DA56
:100F300080914B0190914C01A0914D018F83988736
:100F4000A987BC018A2F7ADA60912401709125016A
:100F50008091260173DA8091480190914901A09116
:100F60004A018A879B87AC87BC018A2F67DA609128
:100F70002701709128018091290160DA882DB30141
:100F80005DDA60914E0170914F018091500156DA07
:100F9000882DB30153DA8E2DB60150DA8E2DB601AD
:100FA0004DDA8E2DB6014ADA60912A0170912B013B
:100FB00080912C0143DA6A857B858C853FDA6091CC
:100FC0002D0170912E0180912F0138DA6091180166
:100FD0007091190180911A0131DA6C817D818E81C5
:100FE0002DDA842DB1012ADA6091540170915501F6
:100FF0008091560123DA60915701709158018091D8
:1010000059011CDA60913C0170913D0180913E01D3
:1010100015DA6F817885898511DA81E090E097DEB5
:1010200060913001709131018091320107DA22E143
:1010300030E03D832C83C0900F01D0901001E090F0
:10104000110112C080910201909103012C813D8118
:10105000281739070CF03DCF0FDA2C813D812F5F27
:101060003F4F3D832C83EECF8E2DB601E7D96981AA
:101070007A818B81E3D98C819D8101979D838C83BB
:10108000892B91F781E08093FB018091FB018130F6
:10109000A9F18091FB01823009F055C100E010E018
:1010A0008091C9019091CA01A091CB018C8F9D8F35
:1010B000AE8F8091600190916101A09162018F8F4C
:1010C00098A3A9A38091630190916401A091650107
:1010D0008AA39BA3ACA38091660190916701A09124
:1010E00068018DA39EA3AFA38091690190916A01CD
:1010F000A0916B0188A799A7AAA71DC12BE030E09A
:101100003D832C8365DA8C819D8101979D838C833F
:10111000892BC1F7BECF8091FC0181112AC06C8D53
:101120007D8D8E8D8BD96091CC017091CD01809198
:10113000CE0184D96091CF017091D0018091D1010D
:101140007DD96091D2017091D3018091D40176D97B
:101150006091D5017091D6018091D7016FD96091CE
:10116000D8017091D9018091DA0168D981E080932A
:10117000FC0186E0A82EB12C80916C0190916D014C
:10118000A0916E018B8B9C8BAD8B80916F019091A8
:101190007001A09171018E8B9F8BA88F809172013D
:1011A00090917301A0917401898F9A8FAB8F85E024
:1011B00090E09CA78BA78091750190917601A091FA
:1011C00077018C839D83AE83809178019091790122
:1011D000A0917A018F839887A98780917B01909154
:1011E0007C01A0917D018A879B87AC8780917E01DD
:1011F00090917F01A09180018D879E87AF8780911C
:10120000810190918201A0918301888B998BAA8B97
:101210002090840130908501409086016F8D78A1E7
:1012200089A10CD96AA17BA18CA108D96DA17EA14D
:101230008FA104D968A579A58AA500D96B897C8975
:101240008D89FCD86E897F89888DF8D8698D7A8DD3
:101250008B8DF4D86C817D818E81F0D86F817885FB
:101260008985ECD86A857B858C85E8D86D857E85F7
:101270008F85E4D8688979898A89E0D8842DB1017D
:10128000DDD8609187017091880180918901D6D85D
:10129000609096017090970180909801882DB3011D
:1012A000CDD8C0909901D0909A01E0909B018E2DED
:1012B000B601C4D82BA53CA5215031093CA72BA7CA
:1012C000232B09F0ABCF882DB301B8D88E2DB601F2
:1012D000B5D8882DB301B2D88E2DB601AFD86090A5
:1012E00090017090910180909201882DB301A6D851
:1012F000C0909301D0909401E09095018E2DB6019D
:101300009DD831E0A31AB10809F051CF20903001E7
:101310003090310140903201882DB3018FD88E2D4D
:10132000B6018CD8842DB10189D869817A818B81ED
:1013300085D80F5F1F4F8091000190910101081720
:1013400019070CF4E8CE8091FB01833009F04DC100
:101350002090390130903A0140903B01842DB10139
:101360006DD880914B0190914C01A0914D018C83DF
:101370009D83AE83BC018A2F61D8842DB1015ED8D4
:10138000C0905101D0905201E09053018E2DB601D2
:1013900055D88091480190914901A0914A018F83CD
:1013A0009887A987BC018A2F49D8842DB10146D8D6
:1013B0008E2DB60143D88E2DB60140D880914E01B6
:1013C00090914F01A09150018A879B87AC87BC0107
:1013D0008A2F34D88091360190913701A09138013D
:1013E0008D879E87AF87BC018A2F28D86C817D812D
:1013F0008E8124D880915A0190915B01A0915C016B
:1014000089839A83AB83BC018A2F18D860905701D7
:101410007090580180905901882DB3010FD8882D04
:10142000B3010CD8882DB30109D8882DB30106D893
:10143000842DB10103D86C817D818E810E941E02B2
:101440006091330170913401809135010E941E0238
:10145000842DB1010E941E0269817A818B810E94D4
:101460001E028091450190914601A0914701888B11
:10147000998BAA8BBC018A2F0E941E0269817A81F6
:101480008B810E941E02688979898A890E941E02C6
:1014900069817A818B810E941E02688979898A8993
:1014A0000E941E0269817A818B810E941E026F81D7
:1014B000788589850E941E02842DB1010E941E023A
:1014C0006C817D818E810E941E0269817A818B816F
:1014D0000E941E026F81788589850E941E026981A3
:1014E0007A818B810E941E026F81788589850E9496
:1014F0001E02842DB1010E941E026F8178858985AC
:101500000E941E02882DB3010E941E0260915401A8
:1015100070915501809156010E941E02882DB301E1
:101520000E941E02882DB3010E941E02882DB30165
:101530000E941E02882DB3010E941E02882DB30155
:101540000E941E02842DB1010E941E026C817D81C9
:101550008E810E941E026D857E858F850E941E02EF
:101560006A857B858C850E941E026D857E858F85B0
:101570000E941E026A857B858C850E941E026091F6
:101580003C0170913D0180913E010E941E028E2D12
:10159000B6010E941E026A857B858C850E941E0210
:1015A000842DB1010E941E026A857B858C850E9474
:1015B0001E028E2DB6010E941E028E2DB6010E94C3
:1015C0001E028E2DB6010E941E028E2DB6010E94B3
:1015D0001E028E2DB6010E941E028E2DB6010E94A3
:1015E0001E028E2DB6010E941E0280E090E0AC9695
:1015F0000FB6F894DEBF0FBECDBFDF91CF911F9124
:101600000F91EF90DF90CF90BF90AF908F907F9031
:101610006F904F903F902F900895292F33272330BC
:101620003105E1F058F42130310599F022303105CF
:1016300069F589E290E02CEB30E02CC021323105D5
:1016400001F12232310511F586E590E027EF30E017
:1016500021C082E190E025EE30E01CC09927813066
:10166000910549F028F0029789F4E4E7F0E005C01D
:10167000E8EBF0E002C0EAE9F0E0849190E09F013D
:1016800009C089E090E02EEC30E004C080E090E0FA
:1016900020E030E0FA01318320830895CF92DF9279
:1016A000EF92FF920F931F93CF93DF93EC018B0187
:1016B0007A0197D1811133C0E114F10439F0F701B7
:1016C00080819181081B190BC80FD91FC12CD12C07
:1016D0000115110519F18091E80085FD16C0809172
:1016E000E8008E778093E80001D4E114F10449F01A
:1016F000F70180819181C80ED91ED182C08285E018
:101700000EC06FD1882321F30AC089918093F10024
:1017100001501109FFEFCF1ADF0ADACF80E0DF9125
:10172000CF911F910F91FF90EF90DF90CF90089590
:10173000CF92DF92EF92FF920F931F93CF93DF939D
:10174000EC018B017A014DD1811133C0E114F10418
:1017500039F0F70180819181081B190BC80FD91F3F
:10176000C12CD12C0115110519F18091E80085FDDE
:1017700016C08091E8008B778093E800B7D3E1141E
:10178000F10449F0F70180819181C80ED91ED18200
:10179000C08285E00EC025D1882321F30AC0809144
:1017A000F100899301501109FFEFCF1ADF0ADACF58
:1017B00080E0DF91CF911F910F91FF90EF90DF902C
:1017C000CF900895209124023091250226173707E3
:1017D00048F06115710539F42091E8002E772093C7
:1017E000E80001C0B901FC0120E06115710569F153
:1017F00080911D028823E1F18530E1F18091E800BC
:1018000083FD3AC08091E80082FD2CC08091E80001
:1018100080FFEBCF8091F20090E06115710551F0EF
:101820008034910538F421912093F10061507109C1
:101830000196F3CF21E08034910509F020E08091FA
:10184000E8008E778093E800D0CF2111D1CF0AC075
:1018500080911D02882361F0853061F08091E8005D
:1018600083FD0AC08091E80082FFF2CF80E00895F6
:1018700082E0089583E0089581E008952091240294
:10188000309125022617370748F06115710539F4A4
:101890002091E8002E772093E80001C0B901FC01F7
:1018A00020E06115710581F180911D02882309F402
:1018B0003EC0853009F43DC08091E80083FD3BC007
:1018C0008091E80082FD2DC08091E80080FFE9CF83
:1018D0008091F20090E06115710559F08034910516
:1018E00040F424912093F1003196615071090196E2
:1018F000F2CF21E08034910509F020E08091E800EA
:101900008E778093E800CDCF2111CECF0AC0809191
:101910001D02882361F0853061F08091E80083FD2D
:101920000AC08091E80082FFF2CF80E0089582E053
:10193000089583E0089581E00895982F953068F523
:101940009093E900981739F07091EC002091ED0028
:101950005091F00003C0242F762F50E021FD02C0EB
:101960009F5FECCF3091EB003E7F3093EB003091E6
:10197000ED003D7F3093ED003091EB00316030930E
:10198000EB007093EC002093ED005093F000209159
:10199000EE0027FDE5CF80E008958F708093E90089
:1019A00081E0089580911E0287FF11C08091E800B8
:1019B00082FD05C080911D028111F8CF11C0809178
:1019C000E8008B770BC080911D02882349F080913D
:1019D000E80080FFF8CF8091E8008E778093E800E0
:1019E00008952091E4003091E50095E64091EC00E7
:1019F000842F817040FF23C08091E80080FD1DC0CE
:101A000080911D02882399F0853099F08091EB0038
:101A100085FD11C04091E4005091E5002417350781
:101A200029F3915011F09A01E1CF84E0089582E00A
:101A3000089583E0089581E0089580E0089540913D
:101A4000E80042FFDDCF089541D043D08091D80017
:101A50008F778093D8008091D80080688093D800D9
:101A60008091D8008F7D8093D80084E089BD86E086
:101A700089BD09B400FEFDCF10921D02109219021B
:101A800010921B0210921A0242E360E080E055DFE0
:101A90008091E1008E7F8093E1008091E20081607F
:101AA0008093E2008091E20088608093E200809160
:101AB000E0008E7F8093E0000895E3E6F0E080810F
:101AC0008E7F808381E080931C02BECF1092E20063
:101AD00008951092E10008951F920F920FB60F9291
:101AE00011242F933F934F935F936F937F938F9323
:101AF0009F93AF93BF93EF93FF938091E10082FF99
:101B00000AC08091E20082FF06C08091E1008B7FD5
:101B10008093E100EAD18091E10080FF18C08091BC
:101B2000E20080FF14C08091E2008E7F8093E2008B
:101B30008091E20080618093E2008091D800806211
:101B40008093D80019BC10921D020E94DE00809183
:101B5000E10084FF30C08091E20084FF2CC084E06B
:101B600089BD86E089BD09B400FEFDCF8091D80013
:101B70008F7D8093D8008091E1008F7E8093E1007B
:101B80008091E2008F7E8093E2008091E20081608C
:101B90008093E20080911902882311F084E007C04D
:101BA0008091E30087FD02C081E001C083E0809363
:101BB0001D020E94DD008091E10083FF22C0809120
:101BC000E20083FF1EC08091E100877F8093E100E7
:101BD00082E080931D02109219028091E1008E7FB5
:101BE0008093E1008091E2008E7F8093E2008091FB
:101BF000E20080618093E20042E360E080E09DDEED
:101C000074D1FF91EF91BF91AF919F918F917F918F
:101C10006F915F914F913F912F910F900FBE0F9059
:101C20001F9018951F93CF93DF93CDB7DEB7AA9778
:101C30000FB6F894DEBF0FBECDBFEEE1F2E08091AB
:101C4000F100819322E0E632F207C9F70E94E90031
:101C50008091E80083FF31C180911E0290911F02A4
:101C6000953009F483C030F49130A9F168F09330D5
:101C700091F123C1983009F4EFC0993009F4FBC009
:101C8000963009F01AC194C0803821F0823809F0EA
:101C900014C108C080911A0290911B02992389F007
:101CA00082600FC0809122028F70853008F005C1DC
:101CB0008093E9008091EB0085FB882780F91092E2
:101CC000E9009091E800977F9093E8008093F100FD
:101CD0001092F100CCC0282F2D7F09F0EEC0882390
:101CE00019F0823061F0E9C080912002813009F062
:101CF000E4C0933009F080E080931B022EC08091F5
:101D0000200281112AC0809122028F702FEF280FAC
:101D1000243008F0D2C08093E9002091EB0020FF2E
:101D20001CC0933021F48091EB00806214C090912C
:101D3000EB0090619093EB0021E030E0A90102C03C
:101D4000440F551F8A95E2F74093EA001092EA008B
:101D50008091EB0088608093EB001092E900809105
:101D6000E800877F8093E8001DDEA7C08111A5C031
:101D7000109120021F778091E3008078812B80935F
:101D8000E3008091E800877F8093E8000BDE80917C
:101D9000E80080FFFCCF8091E30080688093E3003F
:101DA000111102C082E001C083E080931D0285C052
:101DB0008058823008F081C08091200290912102E9
:101DC0008C3D53E0950771F583E08A838AE289832D
:101DD0004FB7F894DE01139620E03EE051E2E32F86
:101DE000F0E050935700E49120FF03C0E295EF70BC
:101DF0003F5FEF708E2F90E0EA3010F0C79601C081
:101E0000C0968D939D932F5F243149F74FBF8091EA
:101E1000E800877F8093E8006AE270E0CE010196D7
:101E2000D1DC14C06091220270912302AE014F5F99
:101E30005F4FF3DBBC01892B09F43FC09091E800B0
:101E4000977F9093E80089819A8118DD8091E8005E
:101E50008B778093E80031C0803879F58091E80075
:101E6000877F8093E800809119028093F100809130
:101E7000E8008E7777CF811120C080912002909169
:101E8000210299270297CCF48091E800877F809304
:101E9000E800809120028093190284DD809119026C
:101EA000811106C08091E30087FD02C081E001C07E
:101EB00084E080931D020E94DF008091E80083FF90
:101EC0000AC08091E800877F8093E8008091EB0052
:101ED00080628093EB00AA960FB6F894DEBF0FBE27
:101EE000CDBFDF91CF911F9108950895CF93809139
:101EF0001D02882399F0C091E900CF709091EC0009
:101F0000892F817090FD80E8C82B1092E9008091A4
:101F1000E80083FD87DECF70C093E900CF9108957C
:041F2000F894FFCF63
:101F24000100230002000705000C28000C32000801
:101F34000F000C05001014000905000F32000732D1
:101F440000018C00020600040A000D0500042C01A7
:101F54000A050002500011050007050008050005E8
:101F640005000605000C05000C0A000C14000C1EEC
:101F7400000C28000005000405000205000305000C
:101F84000705000C0A000005000C05000005000C04
:101F940005000705000C28000005000C05000705D6
:101FA400000C41000705000C28000305000C050087
:101FB4000405000C05000205000C05000705000CD3
:101FC40005001024130705000C05000205000C058C
:101FD400000205000C05000205000C0500020500C6
:101FE4000C05000705000C05000505000C2D000775
:101FF40005000C46000A05000C46000605000C0509
:10200400000605000C05000350000C050004460002
:0A2014000C05000128000C0A000072
:00000001FF
