:10000000A6C00000C0C00000BEC00000BCC0000010
:10001000BAC00000B8C00000B6C00000B4C0000004
:10002000B2C00000B0C00000AEC000000C946F0B66
:10003000AAC00000A8C00000A6C00000A4C0000024
:10004000A2C00000A0C000009EC000009CC0000034
:100050009AC0000098C0000096C0000094C0000044
:1000600092C0000090C000008EC000008CC0000054
:100070008AC00000240350004F004B004B00450095
:100080004E00200043004F004E00540052004F002D
:100090004C004C004500520000001C0348004F007B
:1000A00052004900200043004F002E002C004C005D
:1000B000540044002E000000040309040902290032
:1000C00001010080FA090400000203000000092178
:1000D0001101000122560007050203400005070533
:1000E000810340000512010002000000400D0F9244
:1000F0000000010102000105010905A1011500250B
:100100000135004501750195100509190129108176
:100110000205012507463B0175049501651409395F
:10012000814265009501810126FF0046FF000930EC
:100130000931093209357508950481020600FF0965
:1001400020950181020A212695089102C000112400
:100150001FBECFEFD2E0DEBFCDBF11E0A0E0B1E027
:10016000EAE2FBE102C005900D92AA3FB107D9F780
:1001700022E0AAEFB1E001C01D92A632B207E1F77A
:1001800092D40C94930D3CCF84B7877F84BF0FB675
:10019000F894A89580916000886180936000109227
:1001A00060000FBE90E080E80FB6F8948093610085
:1001B000909361000FBE0C94600B0895089542E384
:1001C00060EC82E00E94A00A42E361EC81E00C94C2
:1001D000A00A0895DC0198E0FD01892F11928A950B
:1001E000E9F780E813968C93139714968C931497E1
:1001F00015968C93159716968C93169712969C933A
:10020000129780910D0290910E02181619066CF447
:1002100088E0EFE0F2E001900D928A95E1F780919D
:100220000D0290910E020197B0C08091FA018230C8
:10023000A1F048F4882379F0813009F09CC0119630
:100240001C921E9208C0843009F492C040F08530A0
:1002500009F49FC090C082E08CC083E08AC048301F
:1002600009F454C0C8F44330C9F138F4413091F175
:10027000C8F514961C92149771C0453009F44BC010
:10028000B0F1463009F44CC0473009F067C08D9199
:100290009C911197846057C04D3071F160F44A30E1
:1002A00009F448C008F441C04B3009F057C0149617
:1002B0001C9214973FC04F3009F441C010F14031F7
:1002C00009F445C0413109F049C08D919C911197C5
:1002D000906139C014961C92149709C013961C9211
:1002E00013973CC08FEF14968C93149737C08FEF01
:1002F00013968C93139732C08D919C9111979260B5
:1003000022C08D919C91119791601DC08D919C91FF
:100310001197826018C08D919C911197886013C0CD
:100320008D919C91119781600EC08D919C91119738
:10033000806109C08D919C911197806204C08D915C
:100340009C911197806311969C938E9307C013968E
:100350001C9213978FEF15968C9315978091050239
:10036000909106020196909306028093050203C0C5
:1003700085E08093FA0188E0FD01AFE0B2E00190F2
:100380000D928A95E1F782E090E090930E028093BF
:100390000D020895CF92DF92EF92CF93DF93CDB706
:1003A000DEB728970FB6F894DEBF0FBECDBF909191
:1003B0001D029430A9F56B01E82E82E08093E900DC
:1003C0008091E80082FF12C08091E80085FF09C09B
:1003D00040E050E067E070E0CE010196ACD78111BB
:1003E000F7CF8091E8008B778093E80081E08093DD
:1003F000E9008091E80080FF13C06E2DA601CE01B8
:100400000196E8DE40E050E068E070E0CE01019641
:1004100048D78111F7CF8091E8008E778093E8006C
:1004200028960FB6F894DEBF0FBECDBFDF91CF91F7
:10043000EF90DF90CF9008951F93CF93DF93162F07
:10044000D72FC82F10920602109205028D2F9C2FD5
:1004500020910502309106022817390738F4612FE0
:100460007D2F8C2F97DF0E94790DF0CFDF91CF91F8
:100470001F9108952F923F924F926F927F928F9289
:10048000CF92DF92EF92CF93DF93CDB7DEB72B976A
:100490000FB6F894DEBF0FBECDBF83E090E09B8720
:1004A0008A878091E7019091E801A091E901898311
:1004B0009A83AB832090EA013090EB014090EC01ED
:1004C0006090ED017090EE018090EF01C090F0011E
:1004D000D090F101E090F2018091F3019091F4014C
:1004E000A091F5018C839D83AE838091F60190915C
:1004F000F701A091F8018F839887A98769817A8194
:100500008B819ADF842DB10197DF882DB30194DFB1
:100510008E2DB60191DF6C817D818E818DDF6F81A3
:100520007885898589DF8A859B8501979B878A875E
:10053000892B21F7C0900601D0900701E0900801B7
:100540008E2DB60179DF6091090170910A018091C9
:100550000B0172DF8E2DB6016FDF60910C0170917F
:100560000D0180910E0168DF8DE090E09A83898310
:1005700060900F017090100180901101C0901201E5
:10058000D0901301E0901401882DB30155DF8E2D1A
:10059000B60152DF89819A8101979A838983892BD9
:1005A00099F784E08093FB012B960FB6F894DEBF99
:1005B0000FBECDBFDF91CF91EF90DF90CF908F90A6
:1005C0007F906F904F903F902F900895CF93DF933F
:1005D000C9ECD1E0688179818A812EDF6B817C81D1
:1005E0008D812ADF6E817F81888526DF69857A8506
:1005F0008B8522DF6C857D858E851EDF6F857889F2
:1006000089891ADF6A897B898C8916DF6D897E89E1
:100610008F8912DF688D798D8A8D0EDF6B8D7C8DD1
:100620008D8DDF91CF9108CFCF93DF93C5EAD1E0D5
:10063000688179818A8100DF6B817C818D81FCDE1C
:100640006E817F818885F8DE69857A858B85F4DE09
:100650006C857D858E85F0DE6F8578898989ECDEF5
:100660006A897B898C89E8DE6D897E898F89E4DEE1
:10067000688D798D8A8DE0DE6B8D7C8D8D8DDCDED5
:100680006E8D7F8D88A1D8DE69A17AA18BA1DF91C3
:10069000CF91D2CE2F923F924F926F927F928F92B4
:1006A000AF92BF92CF92DF92EF920F931F93CF93AF
:1006B000DF93CDB7DEB767970FB6F894DEBF0FBEF6
:1006C000CDBF00E010E020908A0130908B01409077
:1006D0008C0160908D0170908E0180908F018091CF
:1006E000960190919701A0919801888B998BAA8B84
:1006F0008091900190919101A09192018A879B87AE
:10070000AC878091930190919401A09195018D8780
:100710009E87AF8780910F0190911001A0911101E8
:100720008C839D83AE83C0901201D0901301E09022
:1007300014018091150190911601A09117018B8BE6
:100740009C8BAD8B43DF0115110509F445C0842D49
:10075000B10172DE882DB3016FDE688979898A89DB
:100760006BDE6091990170919A0180919B0164DE2A
:100770005BDF1A8219826A857B858C855DDE6D85DB
:100780007E858F8559DE89819A8101969A83898336
:100790008017910784F360E075E080E04DDE6091A2
:1007A0001201709113018091140146DE6091A50140
:1007B0007091A6018091A7013FDE6091A801709120
:1007C000A9018091AA0138DE6A857B858C8534DE9B
:1007D0006D857E858F8530DE27DF1A821982842D14
:1007E000B1012ADE882DB30127DE89819A81019625
:1007F0009A8389830817190794F78091960190913D
:100800009701A091980189839A83AB83BC018A2FB9
:1008100013DE8091990190919A01A0919B018F83A1
:100820009887A987BC018A2F07DE60919C0170918F
:100830009D0180919E0100DE60919F017091A00159
:100840008091A101F9DD82E190E09F8B8E8B6C811C
:100850007D818E81F1DD8E2DB601EEDD8E899F8941
:1008600001979F8B8E8B892B91F76091A2017091DC
:10087000A3018091A401E0DD85E090E09F8B8E8B49
:1008800085E2A82EB12C6C817D818E81D5DD8E2DE7
:10089000B601D2DD91E0A91AB108A9F76B897C896C
:1008A0008D89CADD8E899F8901979F8B8E8B892BBD
:1008B00039F70F5F1F4F0630110509F043CF86DE71
:1008C000842DB101B9DD882DB301B6DD69817A814E
:1008D0008B81B2DD6F8178858985AEDDA5DE86E00E
:1008E00090E09A838983209090013090910140900C
:1008F0009201609093017090940180909501842DF5
:10090000B1019ADD882DB30197DD89819A81019724
:100910009A838983892B99F760E075E080E08CDD0C
:100920008E2DB60189DD6091A5017091A60180919F
:10093000A70182DD6091A8017091A9018091AA01AF
:100940007BDD60E075E080E077DD8E2DB60174DD43
:10095000842DB10171DD882DB3016EDD84E190E05D
:100960009A8389836C817D818E8166DD8E2DB601AF
:1009700063DD89819A8101979A838983892B91F715
:1009800067960FB6F894DEBF0FBECDBFDF91CF9153
:100990001F910F91EF90DF90CF90BF90AF908F900D
:1009A0007F906F904F903F902F9008952F923F929D
:1009B0004F926F927F928F92CF92DF92EF92FF923F
:1009C0006C0104DE609118017091190180911A0187
:1009D00033DD609148017091490180914A012CDD1D
:1009E00060918A0170918B0180918C0125DD60916D
:1009F0008D0170918E0180918F011EDD60919601B5
:100A0000709197018091980117DD60919901709123
:100A10009A0180919B0110DD07DEE12CF12C2090E2
:100A200090013090910140909201609093017090FC
:100A3000940180909501EC14FD0454F4842DB101CF
:100A4000FBDC882DB301F8DC8FEFE81AF80AF3CF4E
:100A5000C0901201D0901301E090140160E075E0A5
:100A600080E0EADC8E2DB601E7DC6091A501709193
:100A7000A6018091A701E0DC6091A8017091A90115
:100A80008091AA01D9DC842DB101D6DC882DB30177
:100A9000FF90EF90DF90CF908F907F906F904F906E
:100AA0003F902F90C9CC2F923F924F926F927F929E
:100AB0008F92AF92BF92CF92DF92EF920F931F93DC
:100AC000CF93DF93CDB7DEB7AC970FB6F894DEBF08
:100AD0000FBECDBF59DB789460911B0170911C0152
:100AE00080911D01A9DC8091120190911301A091C8
:100AF000140189839A83AB83BC018A2F9DDC6091AA
:100B00001E0170911F018091200196DC8091FB01F4
:100B1000811107C060912101709122018091230110
:100B20008BDC8091FB01811103C01D821C82B9C046
:100B30008091FB01843009F0D7C080913F019091F2
:100B40004001A09141018C839D83AE83BC018A2F1B
:100B500073DC209081013090820140908301842DCC
:100B6000B1016ADC6090390170903A0180903B01DC
:100B7000882DB30161DCC0905101D0905201E0900A
:100B800053018E2DB60158DC8E2DB60155DC8091B7
:100B90004B0190914C01A0914D018F839887A987BB
:100BA000BC018A2F49DC609124017091250180915C
:100BB000260142DC8091480190914901A0914A01AF
:100BC0008A879B87AC87BC018A2F36DC609127011E
:100BD00070912801809129012FDC882DB3012CDC34
:100BE00060914E0170914F018091500125DC882D5C
:100BF000B30122DC8E2DB6011FDC8E2DB6011CDC6C
:100C00008E2DB60119DC60912A0170912B01809123
:100C10002C0112DC6A857B858C850EDC60912D01B0
:100C200070912E0180912F0107DC60911801709165
:100C3000190180911A0100DC6C817D818E81FCDBC1
:100C4000842DB101F9DB60915401709155018091BF
:100C50005601F2DB60915701709158018091590162
:100C6000EBDB60913C0170913D0180913E01E4DB42
:100C70006F8178858985E0DB81E090E097DE609187
:100C800030017091310180913201D6DB22E130E0F8
:100C90003D832C83C0900F01D0901001E090110192
:100CA00012C080910201909103012C813D8128178F
:100CB00039070CF03DCFDEDB2C813D812F5F3F4FAC
:100CC0003D832C83EECF8E2DB601B6DB69817A8110
:100CD0008B81B2DB8C819D8101979D838C83892BD5
:100CE00091F781E08093FB018091FB018130A9F1B4
:100CF0008091FB01823009F055C100E010E0809145
:100D0000C9019091CA01A091CB018C8F9D8FAE8FAC
:100D10008091600190916101A09162018F8F98A3F1
:100D2000A9A38091630190916401A09165018AA3B8
:100D30009BA3ACA38091660190916701A09168018B
:100D40008DA39EA3AFA38091690190916A01A091A8
:100D50006B0188A799A7AAA71DC12BE030E03D83AE
:100D60002C8398DC8C819D8101979D838C83892BBA
:100D7000C1F7BECF8091FC0181112AC06C8D7D8DA1
:100D80008E8D5ADB6091CC017091CD018091CE01A6
:100D900053DB6091CF017091D0018091D1014CDB88
:100DA0006091D2017091D3018091D40145DB6091B3
:100DB000D5017091D6018091D7013EDB6091D801B9
:100DC0007091D9018091DA0137DB81E08093FC01D9
:100DD00086E0A82EB12C80916C0190916D01A091BC
:100DE0006E018B8B9C8BAD8B80916F01909170010C
:100DF000A09171018E8B9F8BA88F80917201909131
:100E00007301A0917401898F9A8FAB8F85E090E078
:100E10009CA78BA78091750190917601A091770195
:100E20008C839D83AE838091780190917901A0910C
:100E30007A018F839887A98780917B0190917C01AB
:100E4000A0917D018A879B87AC8780917E019091DC
:100E50007F01A09180018D879E87AF87809181015E
:100E600090918201A0918301888B998BAA8B20900D
:100E7000840130908501409086016F8D78A189A111
:100E8000DBDA6AA17BA18CA1D7DA6DA17EA18FA14B
:100E9000D3DA68A579A58AA5CFDA6B897C898D8993
:100EA000CBDA6E897F89888DC7DA698D7A8D8B8DD3
:100EB000C3DA6C817D818E81BFDA6F817885898507
:100EC000BBDA6A857B858C85B7DA6D857E858F85F3
:100ED000B3DA688979898A89AFDA842DB101ACDA0D
:100EE000609187017091880180918901A5DA6090F5
:100EF00096017090970180909801882DB3019CDA3B
:100F0000C0909901D0909A01E0909B018E2DB6017E
:100F100093DA2BA53CA5215031093CA72BA7232B05
:100F200009F0ABCF882DB30187DA8E2DB60184DAB4
:100F3000882DB30181DA8E2DB6017EDA60909001A2
:100F40007090910180909201882DB30175DAC09064
:100F50009301D0909401E09095018E2DB6016CDA4A
:100F600031E0A31AB10809F051CF20903001309040
:100F7000310140903201882DB3015EDA8E2DB60129
:100F80005BDA842DB10158DA69817A818B8154DA78
:100F90000F5F1F4F80910001909101010817190701
:100FA0000CF4E8CE8091FB01833009F021C1209040
:100FB000390130903A0140903B01842DB1013CDA77
:100FC00080914B0190914C01A0914D018C839D83A8
:100FD000AE83BC018A2F30DA842DB1012DDAC090A6
:100FE0005101D0905201E09053018E2DB60124DAC8
:100FF0008091480190914901A0914A018F8398877F
:10100000A987BC018A2F18DA842DB10115DA8E2D3B
:10101000B60112DA8E2DB6010FDA80914E01909151
:101020004F01A09150018A879B87AC87BC018A2F12
:1010300003DA8091360190913701A09138018D87B4
:101040009E87AF87BC018A2FF7D96C817D818E8105
:10105000F3D980915A0190915B01A0915C01898341
:101060009A83AB83BC018A2FE7D9609057017090B7
:10107000580180905901882DB301DED9882DB30124
:10108000DBD9882DB301D8D9882DB301D5D9842DCA
:10109000B101D2D96C817D818E81CED9609133012D
:1010A0007091340180913501C7D9842DB101C4D923
:1010B00069817A818B81C0D98091450190914601E7
:1010C000A0914701888B998BAA8BBC018A2FB4D938
:1010D00069817A818B81B0D9688979898A89ACD90B
:1010E00069817A818B81A8D9688979898A89A4D90B
:1010F00069817A818B81A0D96F81788589859CD916
:10110000842DB10199D96C817D818E8195D96981B8
:101110007A818B8191D96F81788589858DD9698113
:101120007A818B8189D96F817885898585D9842D4C
:10113000B10182D96F81788589857ED9882DB301E7
:101140007BD960915401709155018091560174D9F9
:10115000882DB30171D9882DB3016ED9882DB301C3
:101160006BD9882DB30168D9882DB30165D9842D39
:10117000B10162D96C817D818E815ED96D857E855C
:101180008F855AD96A857B858C8556D96D857E85F4
:101190008F8552D96A857B858C854ED960913C01BB
:1011A00070913D0180913E0147D98E2DB60144D901
:1011B0006A857B858C8540D9842DB1013DD96A85AE
:1011C0007B858C8539D98E2DB60136D98E2DB60109
:1011D00033D98E2DB60130D98E2DB6012DD98E2D55
:1011E000B6012AD98E2DB60127D98E2DB60124D964
:1011F00080E090E0AC960FB6F894DEBF0FBECDBF96
:10120000DF91CF911F910F91EF90DF90CF90BF9022
:10121000AF908F907F906F904F903F902F90089558
:10122000292F332723303105E1F058F421303105DF
:1012300099F02230310569F589E290E02CEB30E03D
:101240002CC02132310501F12232310511F586E53C
:1012500090E027EF30E021C082E190E025EE30E021
:101260001CC099278130910549F028F0029789F434
:10127000E4E7F0E005C0E8EBF0E002C0EAE9F0E006
:10128000849190E09F0109C089E090E02EEC30E06D
:1012900004C080E090E020E030E0FA013183208358
:1012A0000895CF92DF92EF92FF920F931F93CF9307
:1012B000DF93EC018B017A0197D1811133C0E114E6
:1012C000F10439F0F70180819181081B190BC80FD7
:1012D000D91FC12CD12C0115110519F18091E800FD
:1012E00085FD16C08091E8008E778093E80001D4D8
:1012F000E114F10449F0F70180819181C80ED91EF3
:10130000D182C08285E00EC06FD1882321F30AC04C
:1013100089918093F10001501109FFEFCF1ADF0A84
:10132000DACF80E0DF91CF911F910F91FF90EF9086
:10133000DF90CF900895CF92DF92EF92FF920F93BC
:101340001F93CF93DF93EC018B017A014DD1811173
:1013500033C0E114F10439F0F70180819181081B59
:10136000190BC80FD91FC12CD12C0115110519F16A
:101370008091E80085FD16C08091E8008B7780930E
:10138000E800B7D3E114F10449F0F70180819181BD
:10139000C80ED91ED182C08285E00EC025D1882317
:1013A00021F30AC08091F100899301501109FFEFE8
:1013B000CF1ADF0ADACF80E0DF91CF911F910F9132
:1013C000FF90EF90DF90CF9008952091240230910C
:1013D00025022617370748F06115710539F4209169
:1013E000E8002E772093E80001C0B901FC0120E05D
:1013F0006115710569F180911D028823E1F1853045
:10140000E1F18091E80083FD3AC08091E80082FD1F
:101410002CC08091E80080FFEBCF8091F20090E03B
:101420006115710551F08034910538F421912093B4
:10143000F100615071090196F3CF21E080349105EC
:1014400009F020E08091E8008E778093E800D0CF0B
:101450002111D1CF0AC080911D02882361F085300F
:1014600061F08091E80083FD0AC08091E80082FF6E
:10147000F2CF80E0089582E0089583E0089581E04E
:10148000089520912402309125022617370748F04D
:101490006115710539F42091E8002E772093E8005A
:1014A00001C0B901FC0120E06115710581F1809155
:1014B0001D02882309F43EC0853009F43DC08091A7
:1014C000E80083FD3BC08091E80082FD2DC0809143
:1014D000E80080FFE9CF8091F20090E0611571058E
:1014E00059F08034910540F424912093F100319615
:1014F000615071090196F2CF21E08034910509F025
:1015000020E08091E8008E778093E800CDCF211114
:10151000CECF0AC080911D02882361F0853061F032
:101520008091E80083FD0AC08091E80082FFF2CF3D
:1015300080E0089582E0089583E0089581E00895B1
:10154000982F953068F59093E900981739F07091CD
:10155000EC002091ED005091F00003C0242F762F75
:1015600050E021FD02C09F5FECCF3091EB003E7F49
:101570003093EB003091ED003D7F3093ED003091E2
:10158000EB0031603093EB007093EC002093ED00A2
:101590005093F0002091EE0027FDE5CF80E0089504
:1015A0008F708093E90081E0089580911E0287FF8B
:1015B00011C08091E80082FD05C080911D0281115B
:1015C000F8CF11C08091E8008B770BC080911D028D
:1015D000882349F08091E80080FFF8CF8091E800EF
:1015E0008E778093E80008952091E4003091E50023
:1015F00095E64091EC00842F817040FF23C08091DC
:10160000E80080FD1DC080911D02882399F085307F
:1016100099F08091EB0085FD11C04091E40050915C
:10162000E5002417350729F3915011F09A01E1CF15
:1016300084E0089582E0089583E0089581E00895AC
:1016400080E008954091E80042FFDDCF089541D049
:1016500043D08091D8008F778093D8008091D800B4
:1016600080688093D8008091D8008F7D8093D800C7
:1016700084E089BD86E089BD09B400FEFDCF1092EB
:101680001D021092190210921B0210921A0242E3DC
:1016900060E080E055DF8091E1008E7F8093E10083
:1016A0008091E20081608093E2008091E200886096
:1016B0008093E2008091E0008E7F8093E0000895A7
:1016C000E3E6F0E080818E7F808381E080931C02DE
:1016D000BECF1092E20008951092E10008951F928B
:1016E0000F920FB60F9211242F933F934F935F9356
:1016F0006F937F938F939F93AF93BF93EF93FF93DA
:101700008091E10082FF0AC08091E20082FF06C062
:101710008091E1008B7F8093E100EAD18091E1002C
:1017200080FF18C08091E20080FF14C08091E20029
:101730008E7F8093E2008091E20080618093E200DE
:101740008091D80080628093D80019BC10921D024D
:101750000E94DE008091E10084FF30C08091E200B1
:1017600084FF2CC084E089BD86E089BD09B400FEF9
:10177000FDCF8091D8008F7D8093D8008091E100CB
:101780008F7E8093E1008091E2008F7E8093E20063
:101790008091E20081608093E200809119028823A9
:1017A00011F084E007C08091E30087FD02C081E072
:1017B00001C083E080931D020E94DD008091E10062
:1017C00083FF22C08091E20083FF1EC08091E10070
:1017D000877F8093E10082E080931D0210921902BE
:1017E0008091E1008E7F8093E1008091E2008E7F06
:1017F0008093E2008091E20080618093E20042E306
:1018000060E080E09DDE74D1FF91EF91BF91AF91D8
:101810009F918F917F916F915F914F913F912F9108
:101820000F900FBE0F901F9018951F93CF93DF93CB
:10183000CDB7DEB7AA970FB6F894DEBF0FBECDBF07
:10184000EEE1F2E08091F100819322E0E632F207CE
:10185000C9F70E94E9008091E80083FF31C18091BF
:101860001E0290911F02953009F483C030F491302C
:10187000A9F168F0933091F123C1983009F4EFC0D9
:10188000993009F4FBC0963009F01AC194C0803831
:1018900021F0823809F014C108C080911A02909199
:1018A0001B02992389F082600FC0809122028F7001
:1018B000853008F005C18093E9008091EB0085FB3D
:1018C000882780F91092E9009091E800977F909323
:1018D000E8008093F1001092F100CCC0282F2D7FFA
:1018E00009F0EEC0882319F0823061F0E9C08091E0
:1018F0002002813009F0E4C0933009F080E0809349
:101900001B022EC08091200281112AC080912202E8
:101910008F702FEF280F243008F0D2C08093E90099
:101920002091EB0020FF1CC0933021F48091EB004C
:10193000806214C09091EB0090619093EB0021E0E5
:1019400030E0A90102C0440F551F8A95E2F7409389
:10195000EA001092EA008091EB0088608093EB002F
:101960001092E9008091E800877F8093E8001DDEF7
:10197000A7C08111A5C0109120021F778091E300BC
:101980008078812B8093E3008091E800877F8093AB
:10199000E8000BDE8091E80080FFFCCF8091E3003F
:1019A00080688093E300111102C082E001C083E0EF
:1019B00080931D0285C08058823008F081C08091DC
:1019C0002002909121028C3D53E0950771F583E050
:1019D0008A838AE289834FB7F894DE01139620E068
:1019E0003EE051E2E32FF0E050935700E49120FFF6
:1019F00003C0E295EF703F5FEF708E2F90E0EA300A
:101A000010F0C79601C0C0968D939D932F5F24312F
:101A100049F74FBF8091E800877F8093E8006AE232
:101A200070E0CE010196D1DC14C060912202709169
:101A30002302AE014F5F5F4FF3DBBC01892B09F43A
:101A40003FC09091E800977F9093E80089819A8148
:101A500018DD8091E8008B778093E80031C08038F2
:101A600079F58091E800877F8093E80080911902E2
:101A70008093F1008091E8008E7777CF811120C0AC
:101A8000809120029091210299270297CCF48091B5
:101A9000E800877F8093E8008091200280931902FC
:101AA00084DD80911902811106C08091E30087FDD9
:101AB00002C081E001C084E080931D020E94DF002B
:101AC0008091E80083FF0AC08091E800877F8093BF
:101AD000E8008091EB0080628093EB00AA960FB63D
:101AE000F894DEBF0FBECDBFDF91CF911F91089557
:101AF0000895CF9380911D02882399F0C091E90049
:101B0000CF709091EC00892F817090FD80E8C82BF8
:101B10001092E9008091E80083FD87DECF70C093CA
:0A1B2000E900CF910895F894FFCF7B
:101B2A000A004A0102000705000C28000C320008CE
:101B3A000F000C05001014000905000F32000732CF
:101B4A0000018C00020600040A000D0500042C01A5
:101B5A000A050002500011050007050008050005E6
:101B6A0005000605000C05000C0A000C14000C1EEA
:101B7A00000C28000005000405000205000305000A
:101B8A000705000C0A000005000C05000005000C02
:101B9A0005000705000C28000005000C05000705D4
:101BAA00000C41000705000C28000305000C050085
:101BBA000405000C05000205000C05000705000CD1
:101BCA00050010F00A0705000C05000205000C05C7
:101BDA00000205000C05000205000C0500020500C4
:101BEA000C05000705000C05000505000C2D000773
:101BFA0005000C46000A05000C46000605000C0507
:101C0A00000605000C05000350000C050004460000
:0A1C1A000C05000128000C0A000070
:00000001FF
