:10000000A6C00000C0C00000BEC00000BCC0000010
:10001000BAC00000B8C00000B6C00000B4C0000004
:10002000B2C00000B0C00000AEC000000C94A40933
:10003000AAC00000A8C00000A6C00000A4C0000024
:10004000A2C00000A0C000009EC000009CC0000034
:100050009AC0000098C0000096C0000094C0000044
:1000600092C0000090C000008EC000008CC0000054
:100070008AC00000240350004F004B004B00450095
:100080004E00200043004F004E00540052004F002D
:100090004C004C004500520000001C0348004F007B
:1000A00052004900200043004F002E002C004C005D
:1000B000540044002E000000040309040902290032
:1000C00001010080FA090400000203000000092178
:1000D0001101000122560007050203400005070533
:1000E000810340000512010002000000400D0F9244
:1000F0000000010102000105010905A1011500250B
:100100000135004501750195100509190129108176
:100110000205012507463B0175049501651409395F
:10012000814265009501810126FF0046FF000930EC
:100130000931093209357508950481020600FF0965
:1001400020950181020A212695089102C000112400
:100150001FBECFEFD2E0DEBFCDBF11E0A0E0B1E027
:10016000E4E9F7E102C005900D92AE3BB107D9F783
:1001700021E0AEEBB1E001C01D92A93EB207E1F76C
:1001800068D10C94C80B3CCF84B7877F84BF0FB66F
:10019000F894A89580916000886180936000109227
:1001A00060000FBE90E080E80FB6F8948093610085
:1001B000909361000FBE0C9495090895089542E351
:1001C00060EC82E0F2D742E361EC81E0EEC7089593
:1001D000DC0198E0FD01892F11928A95E9F780E80A
:1001E00013968C93139714968C93149715968C935F
:1001F000159716968C93169712969C93129780914A
:10020000D0019091D101181619066CF488E0E2ED46
:10021000F1E001900D928A95E1F78091D0019091E3
:10022000D1010197A1C08091BE018230A1F048F4B4
:10023000882379F0813009F08DC011961C921E92AE
:1002400008C0843009F483C040F0853009F490C0C0
:1002500081C082E07DC083E07BC0473009F44DC09F
:1002600078F44330B9F138F4413081F1B8F514969F
:100270001C92149762C0453009F444C0A0F147C0F5
:100280004B3009F44BC050F48D919C91119749303B
:1002900009F442C008F048C082604CC04E3041F1C1
:1002A00040F44D3009F049C08D919C9111979260B6
:1002B00041C04F30D9F1403109F03FC013961C9234
:1002C00013978FEF15968C93159737C014961C9241
:1002D000149709C013961C9213972FC08FEF149692
:1002E0008C9314972AC08FEF13968C93139725C085
:1002F0008D919C91119791601DC08D919C9111974A
:10030000846018C08D919C911197886013C08D9165
:100310009C91119781600EC080610CC014961C9254
:1003200014978D919C911197806204C08D919C913E
:100330001197806311969C938E938091C801909140
:10034000C90101969093C9018093C80103C085E05B
:100350008093BE0188E0FD01A2EDB1E001900D9215
:100360008A95E1F782E090E09093D1018093D001EB
:100370000895CF92DF92EF92CF93DF93CDB7DEB7A0
:1003800028970FB6F894DEBF0FBECDBF9091E00165
:100390009430A9F56B01E82E82E08093E90080910A
:1003A000E80082FF12C08091E80085FF09C040E0AC
:1003B00050E067E070E0CE010196F2D58111F7CFF1
:1003C0008091E8008B778093E80081E08093E900DA
:1003D0008091E80080FF13C06E2DA601CE0101962A
:1003E000F7DE40E050E068E070E0CE0101968ED587
:1003F0008111F7CF8091E8008E778093E8002896EE
:100400000FB6F894DEBF0FBECDBFDF91CF91EF9056
:10041000DF90CF9008951F93CF93DF93162FD72FA0
:10042000C82F1092C9011092C8018D2F9C2F2091C6
:10043000C8013091C9012817390738F4612F7D2F81
:100440008C2F97DF0E94AE0BF0CFDF91CF911F91E1
:100450000895CF93DF93CDB7DEB7C955D1090FB655
:10046000F894DEBF0FBECDBF8FDE78946091070198
:100470007091080180910901CEDF80910A0190916D
:100480000B01A0910C0189839A83AB83BC018A2F55
:10049000C2DF60910D0170910E0180910F01BBDFF1
:1004A00080910401811107C06091100170911101C8
:1004B00080911201B0DF8091AC019091AD01A091CB
:1004C000AE0165968DAF9EAFAFAF65978091550138
:1004D00090915601A09157012F968DAF9EAFAFAF6F
:1004E0002F978091580190915901A0915A016296DD
:1004F0008DAF9EAFAFAF62978091130190911401C1
:10050000A091150188A799A7AAA78091160190919B
:100510001701A091180168968DAF9EAFAFAF689795
:1005200080910401811178C083E090E09B878A87E5
:100530008091AF019091B001A091B1018C839D8316
:10054000AE832090B2013090B3014090B40160902E
:10055000B5017090B6018090B7018091B80190917B
:10056000B901A091BA018F839887A987C090BB0178
:10057000D090BC01E090BD0165966DAD7EAD8FADB4
:10058000659749DF6C817D818E8145DF842DB101C6
:1005900042DF882DB3013FDF6F81788589853BDF9E
:1005A0008E2DB60138DF8A859B8501979B878A87C8
:1005B000892B11F7C0901901D0901A01E0901B010E
:1005C0008E2DB60128DF60911C0170911D01809174
:1005D0001E0121DF8E2DB6011EDF60911F0170917B
:1005E00020018091210117DF8DE090E09D838C83B5
:1005F000C0901301D0901401E09015018E2DB6012A
:100600000ADF69817A818B8106DF8C819D81019768
:100610009D838C83892B91F780910401813009F0AF
:10062000E7C2A12CB12C80918E0190918F01A091F5
:1006300090018DAF9EAFAFAF8091910190919201EB
:10064000A091930123968DAF9EAFAFAF239780917A
:10065000940190919501A091960126968DAF9EAF41
:10066000AFAF26978091970190919801A091990141
:1006700029968DAF9EAFAFAF299780919A01909147
:100680009B01A0919C012C968DAF9EAFAFAF2C9794
:100690006DAD7EAD8FADBFDE23966DAD7EAD8FAD02
:1006A0002397B9DE26966DAD7EAD8FAD2697B3DE6E
:1006B00029966DAD7EAD8FAD2997ADDE2C966DADD3
:1006C0007EAD8FAD2C97A7DE80919D0190919E010C
:1006D000A0919F018DA39EA3AFA3BC018A2F9BDE97
:1006E0008091A0019091A101A091A2018BA79CA74C
:1006F000ADA7BC018A2F8FDE8091A3019091A40148
:10070000A091A5018EA79FA7A8ABBC018A2F83DE6D
:100710008091A6019091A701A091A80189AB9AAB05
:10072000ABABBC018A2F77DE8091A9019091AA0121
:10073000A091AB018CAB9DABAEABBC018A2F6BDE45
:1007400080914F0190915001A09151018F83988722
:10075000A9878091520190915301A09154018A87F9
:100760009B87AC8720906A0130906B0140906C01B0
:1007700080916D0190916E01A0916F018C839D839A
:10078000AE838091700190917101A09172018D876B
:100790009E87AF878091730190917401A09175013C
:1007A000888B998BAA8B8091760190917701A0918B
:1007B00078018B8B9C8BAD8B8091790190917A0124
:1007C000A0917B018E8B9F8BA88F80917C01909153
:1007D0007D01A0917E01898F9A8FAB8F80917F01DF
:1007E00090918001A09181018C8F9D8FAE8F80911F
:1007F000820190918301A09184018F8F98A3A9A376
:100800008091850190918601A09187018AA39BA385
:10081000ACA3609088017090890180908A01C0909B
:100820008B01D0908C01E0908D01A114B10409F4EA
:1008300074C06F8178858985EEDD6A857B858C85BE
:10084000EADD60915B0170915C0180915D01E3DD07
:1008500060915E0170915F0180916001DCDD842D0B
:10086000B101D9DD6C817D818E81D5DD6D857E857F
:100870008F85D1DD688979898A89CDDD6B897C890D
:100880008D89C9DD6E897F89888DC5DD698D7A8DF9
:100890008B8DC1DD6C8D7D8D8E8DBDDD6F8D78A1D5
:1008A00089A1B9DD6AA17BA18CA1B5DD882DB30139
:1008B000B2DD8E2DB601AFDD18AE1FAA2F966DAD3D
:1008C0007EAD8FAD2F97A7DD62966DAD7EAD8FADFE
:1008D0006297A1DD8FA998AD019698AF8FAB8A156D
:1008E0009B0564F360E075E080E095DD69817A81C5
:1008F0008B8191DD842DB1018EDD6C817D818E81B6
:100900008ADD2F966DAD7EAD8FAD2F9784DD62961B
:100910006DAD7EAD8FAD62977EDD842DB1017BDD47
:100920006C817D818E8177DD6D857E858F8573DD20
:10093000688979898A896FDD6B897C898D896BDD0E
:100940006E897F89888D67DD698D7A8D8B8D63DDFA
:100950006C8D7D8D8E8D5FDD6F8D78A189A15BDDC6
:100960006AA17BA18CA157DD882DB30154DD8E2DAA
:10097000B60151DD18AE1FAA6F81788589854BDDE0
:100980006A857B858C8547DD8FA998AD019698AFE8
:100990008FABA816B90684F780915B0190915C013A
:1009A000A0915D018FAB98AFA9AFBC018A2F33DD59
:1009B00080915E0190915F01A09160018AAF9BAF31
:1009C000ACAFBC018A2F27DD60916101709162019B
:1009D0008091630120DD60916401709165018091D7
:1009E000660119DD82E190E06A969FAF8EAF6A974B
:1009F00068A579A58AA50FDD69817A818B810BDDD8
:100A00006A968EAD9FAD6A9701976A969FAF8EAF3B
:100A10006A97892B69F760916701709168018091ED
:100A20006901F9DC05E010E085E290E06A969FAF8D
:100A30008EAF6A9768A579A58AA5EDDC69817A8170
:100A40008B81E9DC6A968EAD9FAD6A9701976A96B5
:100A50009FAF8EAF6A97892B69F768966DAD7EADB3
:100A60008FAD6897D8DC01501109F1F69FEFA91AF4
:100A7000B90AA6E0AA16B10409F00ACE6DAD7EADA2
:100A80008FADC9DC23966DAD7EAD8FAD2397C3DCF2
:100A900026966DAD7EAD8FAD2697BDDC29966DADEA
:100AA0007EAD8FAD2997B7DC2C966DAD7EAD8FAD49
:100AB0002C97B1DC6DA17EA18FA1ADDC6BA57CA5CF
:100AC0008DA5A9DC6EA57FA588A9A5DC69A97AA951
:100AD0008BA9A1DC6CA97DA98EA99DDC6F8178858D
:100AE000898599DC6A857B858C8595DC6FA978ADD5
:100AF00089AD91DC6AAD7BAD8CAD8DDC842DB1010F
:100B00008ADC6C817D818E8186DC6D857E858F851A
:100B100082DC688979898A897EDC6B897C898D8908
:100B20007ADC6E897F89888D76DC698D7A8D8B8DF4
:100B300072DC6C8D7D8D8E8D6EDC6F8D78A189A1C0
:100B40006ADC6AA17BA18CA166DC882DB30163DC21
:100B50008E2DB60160DC86E090E098878F836090F0
:100B600055017090560180905701C0905801D09067
:100B70005901E0905A01882DB3014DDC8E2DB6014C
:100B80004ADC8F819885019798878F83892B99F705
:100B900060E075E080E03FDC69817A818B813BDC3D
:100BA000842DB10138DC6C817D818E8134DC60E084
:100BB00075E080E030DC69817A818B812CDC882DC6
:100BC000B30129DC8E2DB60126DC84E190E09D8303
:100BD0008C8368A579A58AA51EDC69817A818B81C1
:100BE0001ADC8C819D8101979D838C83892B89F7E9
:100BF00080910401823009F093CC2091C2013091A0
:100C0000C3018091000190910101281739070CF070
:100C100087CC8091BF0181112DC060918E017091B0
:100C20008F0180919001F7DB6091910170919201A9
:100C300080919301F0DB6091940170919501809116
:100C40009601E9DB6091970170919801809199017B
:100C5000E2DB60919A0170919B0180919C01DBDB4A
:100C600060919D0170919E0180919F01D4DB81E094
:100C70008093BF0106E010E080912501909126014C
:100C8000A09127018B8B9C8BAD8B8091280190913B
:100C90002901A0912A018E8B9F8BA88F80912B0117
:100CA00090912C01A0912D01898F9A8FAB8F80910B
:100CB0002E0190912F01A09130018C8F9D8FAE8FCE
:100CC0008091310190913201A09133018F8F98A3CF
:100CD000A9A38091340190913501A09136018AA396
:100CE0009BA3ACA38091370190913801A091390169
:100CF0008DA39EA3AFA385E090E09CA78BA78091D6
:100D00003A0190913B01A0913C018C839D83AE837D
:100D100080913D0190913E01A0913F018F83988782
:100D2000A9878091400190914101A09142018A8759
:100D30009B87AC878091430190914401A09145012C
:100D40008D879E87AF878091460190914701A09142
:100D50004801888B998BAA8B2090490130904A01D9
:100D600040904B016B897C898D8955DB6E897F8929
:100D7000888D51DB698D7A8D8B8D4DDB6C8D7D8DF2
:100D80008E8D49DB6F8D78A189A145DB6AA17BA19E
:100D90008CA141DB6DA17EA18FA13DDB6C817D81AA
:100DA0008E8139DB6F817885898535DB6A857B8526
:100DB0008C8531DB6D857E858F852DDB6889798912
:100DC0008A8929DB842DB10126DB60914C01709169
:100DD0004D0180914E011FDB60905B0170905C01C2
:100DE00080905D01882DB30116DBC0905E01D0902C
:100DF0005F01E09060018E2DB6010DDB8BA59CA5F7
:100E000001979CA78BA7892B09F0ACCF882DB30144
:100E100002DB8E2DB601FFDA882DB301FCDA8E2DB0
:100E2000B601F9DA60905501709056018090570133
:100E3000882DB301F0DAC0905801D0905901E090AC
:100E40005A018E2DB601E7DA0150110909F053CF8E
:100E5000209022013090230140902401882DB3017D
:100E6000DADA8E2DB601D7DA842DB101D4DA6981B0
:100E70007A818B81D0DA8091C2019091C301019671
:100E80009093C3018093C2014BCB292F332723308A
:100E90003105E1F058F42130310599F02230310567
:100EA00069F589E290E02CEB30E02CC0213231056D
:100EB00001F12232310511F586E590E027EF30E0AF
:100EC00021C082E190E025EE30E01CC099278130FE
:100ED000910549F028F0029789F4E4E7F0E005C0B5
:100EE000E8EBF0E002C0EAE9F0E0849190E09F01D5
:100EF00009C089E090E02EEC30E004C080E090E092
:100F000020E030E0FA01318320830895CF92DF9210
:100F1000EF92FF920F931F93CF93DF93EC018B011E
:100F20007A0197D1811133C0E114F10439F0F7014E
:100F300080819181081B190BC80FD91FC12CD12C9E
:100F40000115110519F18091E80085FD16C0809109
:100F5000E8008E778093E80001D4E114F10449F0B1
:100F6000F70180819181C80ED91ED182C08285E0AF
:100F70000EC06FD1882321F30AC089918093F100BC
:100F800001501109FFEFCF1ADF0ADACF80E0DF91BD
:100F9000CF911F910F91FF90EF90DF90CF90089528
:100FA000CF92DF92EF92FF920F931F93CF93DF9335
:100FB000EC018B017A014DD1811133C0E114F104B0
:100FC00039F0F70180819181081B190BC80FD91FD7
:100FD000C12CD12C0115110519F18091E80085FD76
:100FE00016C08091E8008B778093E800B7D3E114B6
:100FF000F10449F0F70180819181C80ED91ED18298
:10100000C08285E00EC025D1882321F30AC08091DB
:10101000F100899301501109FFEFCF1ADF0ADACFEF
:1010200080E0DF91CF911F910F91FF90EF90DF90C3
:10103000CF9008952091E7013091E80126173707F6
:1010400048F06115710539F42091E8002E7720935E
:10105000E80001C0B901FC0120E06115710569F1EA
:101060008091E0018823E1F18530E1F18091E80091
:1010700083FD3AC08091E80082FD2CC08091E80099
:1010800080FFEBCF8091F20090E06115710551F087
:101090008034910538F421912093F1006150710959
:1010A0000196F3CF21E08034910509F020E0809192
:1010B000E8008E778093E800D0CF2111D1CF0AC00D
:1010C0008091E001882361F0853061F08091E80033
:1010D00083FD0AC08091E80082FFF2CF80E008958E
:1010E00082E0089583E0089581E008952091E7016A
:1010F0003091E8012617370748F06115710539F47A
:101100002091E8002E772093E80001C0B901FC018E
:1011100020E06115710581F18091E001882309F4D7
:101120003EC0853009F43DC08091E80083FD3BC09E
:101130008091E80082FD2DC08091E80080FFE9CF1A
:101140008091F20090E06115710559F080349105AD
:1011500040F424912093F100319661507109019679
:10116000F2CF21E08034910509F020E08091E80081
:101170008E778093E800CDCF2111CECF0AC0809129
:10118000E001882361F0853061F08091E80083FD03
:101190000AC08091E80082FFF2CF80E0089582E0EB
:1011A000089583E0089581E00895982F953068F5BB
:1011B0009093E900981739F07091EC002091ED00C0
:1011C0005091F00003C0242F762F50E021FD02C083
:1011D0009F5FECCF3091EB003E7F3093EB0030917E
:1011E000ED003D7F3093ED003091EB0031603093A6
:1011F000EB007093EC002093ED005093F0002091F1
:10120000EE0027FDE5CF80E008958F708093E90020
:1012100081E008958091E10187FF11C08091E8008D
:1012200082FD05C08091E0018111F8CF11C080914D
:10123000E8008B770BC08091E001882349F0809112
:10124000E80080FFF8CF8091E8008E778093E80077
:1012500008952091E4003091E50095E64091EC007E
:10126000842F817040FF23C08091E80080FD1DC065
:101270008091E001882399F0853099F08091EB000E
:1012800085FD11C04091E4005091E5002417350719
:1012900029F3915011F09A01E1CF84E0089582E0A2
:1012A000089583E0089581E0089580E008954091D5
:1012B000E80042FFDDCF089541D043D08091D800AF
:1012C0008F778093D8008091D80080688093D80071
:1012D0008091D8008F7D8093D80084E089BD86E01E
:1012E00089BD09B400FEFDCF1092E0011092DC012F
:1012F0001092DE011092DD0142E360E080E055DFF4
:101300008091E1008E7F8093E1008091E200816016
:101310008093E2008091E20088608093E2008091F7
:10132000E0008E7F8093E0000895E3E6F0E08081A6
:101330008E7F808381E08093DF01BECF1092E20038
:1013400008951092E10008951F920F920FB60F9228
:1013500011242F933F934F935F936F937F938F93BA
:101360009F93AF93BF93EF93FF938091E10082FF30
:101370000AC08091E20082FF06C08091E1008B7F6D
:101380008093E100EAD18091E10080FF18C0809154
:10139000E20080FF14C08091E2008E7F8093E20023
:1013A0008091E20080618093E2008091D8008062A9
:1013B0008093D80019BC1092E0010E94DE00809159
:1013C000E10084FF30C08091E20084FF2CC084E003
:1013D00089BD86E089BD09B400FEFDCF8091D800AB
:1013E0008F7D8093D8008091E1008F7E8093E10013
:1013F0008091E2008F7E8093E2008091E200816024
:101400008093E2008091DC01882311F084E007C022
:101410008091E30087FD02C081E001C083E08093FA
:10142000E0010E94DD008091E10083FF22C08091F5
:10143000E20083FF1EC08091E100877F8093E1007E
:1014400082E08093E0011092DC018091E1008E7FC8
:101450008093E1008091E2008E7F8093E200809192
:10146000E20080618093E20042E360E080E09DDE84
:1014700074D1FF91EF91BF91AF919F918F917F9127
:101480006F915F914F913F912F910F900FBE0F90F1
:101490001F9018951F93CF93DF93CDB7DEB7AA9710
:1014A0000FB6F894DEBF0FBECDBFE1EEF1E0809144
:1014B000F100819321E0E93EF207C9F70E94E700BD
:1014C0008091E80083FF31C18091E1019091E201B8
:1014D000953009F483C030F49130A9F168F093306D
:1014E00091F123C1983009F4EFC0993009F4FBC0A1
:1014F000963009F01AC194C0803821F0823809F082
:1015000014C108C08091DD019091DE01992389F01A
:1015100082600FC08091E5018F70853008F005C1B1
:101520008093E9008091EB0085FB882780F9109279
:10153000E9009091E800977F9093E8008093F10094
:101540001092F100CCC0282F2D7F09F0EEC0882327
:1015500019F0823061F0E9C08091E301813009F037
:10156000E4C0933009F080E08093DE012EC08091CA
:10157000E30181112AC08091E5018F702FEF280FC0
:10158000243008F0D2C08093E9002091EB0020FFC6
:101590001CC0933021F48091EB00806214C09091C4
:1015A000EB0090619093EB0021E030E0A90102C0D4
:1015B000440F551F8A95E2F74093EA001092EA0023
:1015C0008091EB0088608093EB001092E90080919D
:1015D000E800877F8093E8001DDEA7C08111A5C0C9
:1015E0001091E3011F778091E3008078812B809335
:1015F000E3008091E800877F8093E8000BDE809114
:10160000E80080FFFCCF8091E30080688093E300D6
:10161000111102C082E001C083E08093E00185C027
:101620008058823008F081C08091E3019091E401FC
:101630008C3D53E0950771F583E08A838AE28983C4
:101640004FB7F894DE01139620E03EE051E2E32F1D
:10165000F0E050935700E49120FF03C0E295EF7053
:101660003F5FEF708E2F90E0EA3010F0C79601C018
:10167000C0968D939D932F5F243149F74FBF809182
:10168000E800877F8093E8006AE270E0CE0101966F
:10169000D1DC14C06091E5017091E601AE014F5FAD
:1016A0005F4FF3DBBC01892B09F43FC09091E80048
:1016B000977F9093E80089819A8118DD8091E800F6
:1016C0008B778093E80031C0803879F58091E8000D
:1016D000877F8093E8008091DC018093F100809106
:1016E000E8008E7777CF811120C08091E30190913F
:1016F000E40199270297CCF48091E800877F8093DA
:10170000E8008091E3018093DC0184DD8091DC01BD
:10171000811106C08091E30087FD02C081E001C015
:1017200084E08093E0010E94DF008091E80083FF65
:101730000AC08091E800877F8093E8008091EB00E9
:1017400080628093EB00AA960FB6F894DEBF0FBEBE
:10175000CDBFDF91CF911F9108950895CF938091D0
:10176000E001882399F0C091E900CF709091EC00DE
:10177000892F817090FD80E8C82B1092E90080913C
:10178000E80083FD87DECF70C093E900CF91089514
:04179000F894FFCFFB
:101794000A002C010102000F32000C050007320080
:1017A400018C00080F001014000705000C28000C21
:1017B40032000A05000705000C0A000005000C05AC
:1017C400000005000C05000705000C2800000500BA
:1017D4000C05000705000C41000705000C28000358
:1017E40005000C05000405000C05000205000C05AD
:1017F400000705000C05001068100705000C050023
:101804000205000C05000205000C05000205000C91
:1018140005000205000C05000705000C0500050580
:10182400000C2D000705000C46000A05000C4600BC
:101834000605000C05000605000C05000350000C0D
:0E18440005000446000C05000128000C0A00F7
:00000001FF
